{
  "contractName": "Festival",
  "abi": [
    {
      "constant": true,
      "inputs": [
        {
          "name": "tType",
          "type": "uint256"
        }
      ],
      "name": "myTicketsCount",
      "outputs": [
        {
          "name": "",
          "type": "uint256"
        }
      ],
      "payable": false,
      "stateMutability": "view",
      "type": "function"
    },
    {
      "constant": true,
      "inputs": [],
      "name": "organizer",
      "outputs": [
        {
          "name": "",
          "type": "address"
        }
      ],
      "payable": false,
      "stateMutability": "view",
      "type": "function"
    },
    {
      "constant": false,
      "inputs": [
        {
          "name": "tType",
          "type": "uint256"
        }
      ],
      "name": "buyTicket",
      "outputs": [
        {
          "name": "",
          "type": "uint256"
        }
      ],
      "payable": true,
      "stateMutability": "payable",
      "type": "function"
    },
    {
      "constant": true,
      "inputs": [
        {
          "name": "tType",
          "type": "uint256"
        }
      ],
      "name": "ticketsLeft",
      "outputs": [
        {
          "name": "",
          "type": "uint256"
        }
      ],
      "payable": false,
      "stateMutability": "view",
      "type": "function"
    },
    {
      "constant": false,
      "inputs": [
        {
          "name": "adr",
          "type": "address"
        },
        {
          "name": "tType",
          "type": "uint256"
        }
      ],
      "name": "sendTo",
      "outputs": [
        {
          "name": "",
          "type": "bool"
        }
      ],
      "payable": false,
      "stateMutability": "nonpayable",
      "type": "function"
    },
    {
      "constant": true,
      "inputs": [
        {
          "name": "",
          "type": "address"
        },
        {
          "name": "",
          "type": "uint256"
        }
      ],
      "name": "tickets",
      "outputs": [
        {
          "name": "",
          "type": "uint256"
        }
      ],
      "payable": false,
      "stateMutability": "view",
      "type": "function"
    },
    {
      "constant": true,
      "inputs": [
        {
          "name": "",
          "type": "uint256"
        }
      ],
      "name": "ticketTypes",
      "outputs": [
        {
          "name": "name",
          "type": "string"
        },
        {
          "name": "price",
          "type": "uint256"
        },
        {
          "name": "totalTickets",
          "type": "uint256"
        },
        {
          "name": "boughtTickets",
          "type": "uint256"
        }
      ],
      "payable": false,
      "stateMutability": "view",
      "type": "function"
    },
    {
      "inputs": [],
      "payable": false,
      "stateMutability": "nonpayable",
      "type": "constructor"
    }
  ],
  "bytecode": "0x6060604052341561000f57600080fd5b336000806101000a81548173ffffffffffffffffffffffffffffffffffffffff021916908373ffffffffffffffffffffffffffffffffffffffff1602179055506002805480600101828161006391906102ae565b916000526020600020906004020160006080604051908101604052806040805190810160405280600581526020017f42617369630000000000000000000000000000000000000000000000000000008152508152602001678aa39c121a2700008152602001606481526020016000815250909190915060008201518160000190805190602001906100f59291906102e0565b506020820151816001015560408201518160020155606082015181600301555050506002805480600101828161012b91906102ae565b916000526020600020906004020160006080604051908101604052806040805190810160405280600881526020017f5072696f7269747900000000000000000000000000000000000000000000000081525081526020016801156abf16a40f00008152602001606481526020016000815250909190915060008201518160000190805190602001906101be9291906102e0565b50602082015181600101556040820151816002015560608201518160030155505050600280548060010182816101f491906102ae565b916000526020600020906004020160006080604051908101604052806040805190810160405280600381526020017f564950000000000000000000000000000000000000000000000000000000000081525081526020016801a031e21b2df700008152602001606481526020016000815250909190915060008201518160000190805190602001906102879291906102e0565b50602082015181600101556040820151816002015560608201518160030155505050610414565b8154818355818115116102db576004028160040283600052602060002091820191016102da9190610360565b5b505050565b828054600181600116156101000203166002900490600052602060002090601f016020900481019282601f1061032157805160ff191683800117855561034f565b8280016001018555821561034f579182015b8281111561034e578251825591602001919060010190610333565b5b50905061035c91906103a7565b5090565b6103a491905b808211156103a0576000808201600061037f91906103cc565b60018201600090556002820160009055600382016000905550600401610366565b5090565b90565b6103c991905b808211156103c55760008160009055506001016103ad565b5090565b90565b50805460018160011615610100020316600290046000825580601f106103f25750610411565b601f01602090049060005260206000209081019061041091906103a7565b5b50565b6106a4806104236000396000f300606060405260043610610083576000357c0100000000000000000000000000000000000000000000000000000000900463ffffffff16806317791f281461008857806361203265146100bf57806367dd74ca14610114578063710c5973146101405780639e1a00aa14610177578063dae7a13c146101d1578063e9dbebce14610227575b600080fd5b341561009357600080fd5b6100a960048080359060200190919050506102f5565b6040518082815260200191505060405180910390f35b34156100ca57600080fd5b6100d261034c565b604051808273ffffffffffffffffffffffffffffffffffffffff1673ffffffffffffffffffffffffffffffffffffffff16815260200191505060405180910390f35b61012a6004808035906020019091905050610371565b6040518082815260200191505060405180910390f35b341561014b57600080fd5b61016160048080359060200190919050506104a0565b6040518082815260200191505060405180910390f35b341561018257600080fd5b6101b7600480803573ffffffffffffffffffffffffffffffffffffffff169060200190919080359060200190919050506104ec565b604051808215151515815260200191505060405180910390f35b34156101dc57600080fd5b610211600480803573ffffffffffffffffffffffffffffffffffffffff16906020019091908035906020019091905050610613565b6040518082815260200191505060405180910390f35b341561023257600080fd5b610248600480803590602001909190505061063a565b60405180806020018581526020018481526020018381526020018281038252868181546001816001161561010002031660029004815260200191508054600181600116156101000203166002900480156102e35780601f106102b8576101008083540402835291602001916102e3565b820191906000526020600020905b8154815290600101906020018083116102c657829003601f168201915b50509550505050505060405180910390f35b6000600160003373ffffffffffffffffffffffffffffffffffffffff1673ffffffffffffffffffffffffffffffffffffffff1681526020019081526020016000208260038110151561034357fe5b01549050919050565b6000809054906101000a900473ffffffffffffffffffffffffffffffffffffffff1681565b60006002805490508210151561038a576000905061049b565b60028281548110151561039957fe5b9060005260206000209060040201600201546002838154811015156103ba57fe5b9060005260206000209060040201600301541015156103dc576000905061049b565b6002828154811015156103eb57fe5b90600052602060002090600402016001015434101561040957600080fd5b600160003373ffffffffffffffffffffffffffffffffffffffff1673ffffffffffffffffffffffffffffffffffffffff1681526020019081526020016000208260038110151561045557fe5b016000815480929190600101919050555060028281548110151561047557fe5b906000526020600020906004020160030160008154809291906001019190505550600190505b919050565b60006002828154811015156104b157fe5b9060005260206000209060040201600301546002838154811015156104d257fe5b906000526020600020906004020160020154039050919050565b600080600160003373ffffffffffffffffffffffffffffffffffffffff1673ffffffffffffffffffffffffffffffffffffffff1681526020019081526020016000208360038110151561053b57fe5b015411151561054d576000905061060d565b600160003373ffffffffffffffffffffffffffffffffffffffff1673ffffffffffffffffffffffffffffffffffffffff1681526020019081526020016000208260038110151561059957fe5b016000815480929190600190039190505550600160008473ffffffffffffffffffffffffffffffffffffffff1673ffffffffffffffffffffffffffffffffffffffff168152602001908152602001600020826003811015156105f757fe5b0160008154809291906001019190505550600190505b92915050565b60016020528160005260406000208160038110151561062e57fe5b01600091509150505481565b60028181548110151561064957fe5b9060005260206000209060040201600091509050806000019080600101549080600201549080600301549050845600a165627a7a723058201a9d34c383f5271632e1839d8c33e6a42e8657802eb7a2a245ef47edf914ce0d0029",
  "source": "pragma solidity ^0.4.4;\n\ncontract Festival{\n\n\taddress public organizer;\n\n\tmapping (address => uint[3]) public tickets;\n\n\tstruct ticketType {\n\t  string name;\n\t  uint price;\n\t  uint totalTickets;\n\t  uint boughtTickets;\n\t}\n\tticketType[] public ticketTypes;\n\n\tfunction Festival() public{\n\n\t\torganizer = msg.sender;\n\n\t\tticketTypes.push(ticketType({name:\"Basic\", price:9.99 ether, totalTickets:100, boughtTickets:0}));\n\t\tticketTypes.push(ticketType({name:\"Priority\", price:19.99 ether, totalTickets:100, boughtTickets:0}));\n\t\tticketTypes.push(ticketType({name:\"VIP\", price:29.99 ether, totalTickets:100, boughtTickets:0}));\n\t}\n\n\tfunction buyTicket(uint tType) public payable returns (uint){\n\t\tif (tType>=ticketTypes.length)\n\t\t\treturn 0;\n\t\tif (ticketTypes[tType].boughtTickets>=ticketTypes[tType].totalTickets)\n\t\t\treturn 0;\n\t\tif (msg.value<ticketTypes[tType].price){\n\t\t\trevert();\n\t\t\treturn 0;\n\t\t}\n\t\ttickets[msg.sender][tType]++;\n\t\tticketTypes[tType].boughtTickets++;\t\n\t\t//organizer.transfer(this.balance);\n\t\treturn 1;\n\t}\n\t\n\tfunction ticketsLeft(uint tType) public view returns (uint){\n\t\treturn ticketTypes[tType].totalTickets-ticketTypes[tType].boughtTickets;\n\t}\n\n    function myTicketsCount(uint tType) public view returns (uint){\n    \treturn tickets[msg.sender][tType];\n    }\n\n    function sendTo(address adr, uint tType) public returns (bool){\n        if (tickets[msg.sender][tType]<=0){\n\t\t\treturn false;\n\t\t}\n    \ttickets[msg.sender][tType]--;\n    \ttickets[adr][tType]++;\n\t\treturn true;\n    }\n\n}",
  "sourcePath": "C:\\wamp64\\www\\bilesulietotne-master\\public\\blockchain\\contracts\\Festival.sol",
  "compiler": {
    "name": "solc",
    "version": "0.4.18+commit.9cf6e910.Emscripten.clang"
  },
  "schemaVersion": "1.0.1",
  "updatedAt": "2017-12-17T19:44:11.996Z"
}