{
  "contractName": "Festival",
  "abi": [
    {
      "constant": true,
      "inputs": [
        {
          "name": "tType",
          "type": "uint256"
        }
      ],
      "name": "myTicketsCount",
      "outputs": [
        {
          "name": "",
          "type": "uint256"
        }
      ],
      "payable": false,
      "stateMutability": "view",
      "type": "function"
    },
    {
      "constant": true,
      "inputs": [],
      "name": "organizer",
      "outputs": [
        {
          "name": "",
          "type": "address"
        }
      ],
      "payable": false,
      "stateMutability": "view",
      "type": "function"
    },
    {
      "constant": false,
      "inputs": [
        {
          "name": "tType",
          "type": "uint256"
        }
      ],
      "name": "buyTicket",
      "outputs": [
        {
          "name": "",
          "type": "uint256"
        }
      ],
      "payable": true,
      "stateMutability": "payable",
      "type": "function"
    },
    {
      "constant": true,
      "inputs": [
        {
          "name": "tType",
          "type": "uint256"
        }
      ],
      "name": "ticketsLeft",
      "outputs": [
        {
          "name": "",
          "type": "uint256"
        }
      ],
      "payable": false,
      "stateMutability": "view",
      "type": "function"
    },
    {
      "constant": false,
      "inputs": [
        {
          "name": "adr",
          "type": "address"
        },
        {
          "name": "tType",
          "type": "uint256"
        }
      ],
      "name": "sendTo",
      "outputs": [
        {
          "name": "",
          "type": "bool"
        }
      ],
      "payable": false,
      "stateMutability": "nonpayable",
      "type": "function"
    },
    {
      "constant": true,
      "inputs": [
        {
          "name": "",
          "type": "address"
        },
        {
          "name": "",
          "type": "uint256"
        }
      ],
      "name": "tickets",
      "outputs": [
        {
          "name": "",
          "type": "uint256"
        }
      ],
      "payable": false,
      "stateMutability": "view",
      "type": "function"
    },
    {
      "constant": true,
      "inputs": [
        {
          "name": "",
          "type": "uint256"
        }
      ],
      "name": "ticketTypes",
      "outputs": [
        {
          "name": "name",
          "type": "string"
        },
        {
          "name": "price",
          "type": "uint256"
        },
        {
          "name": "totalTickets",
          "type": "uint256"
        },
        {
          "name": "boughtTickets",
          "type": "uint256"
        }
      ],
      "payable": false,
      "stateMutability": "view",
      "type": "function"
    },
    {
      "inputs": [],
      "payable": false,
      "stateMutability": "view",
      "type": "function",
      "constant": true,
      "name": "ticketTypesCount",
      "outputs": [
        {
          "name": "",
          "type": "uint256"
        }
      ]
    },
    {
      "inputs": [],
      "payable": false,
      "stateMutability": "nonpayable",
      "type": "constructor"
    }
  ],
  "bytecode": "0x6060604052341561000f57600080fd5b336000806101000a81548173ffffffffffffffffffffffffffffffffffffffff021916908373ffffffffffffffffffffffffffffffffffffffff1602179055506002805480600101828161006391906102ae565b916000526020600020906004020160006080604051908101604052806040805190810160405280600581526020017f42617369630000000000000000000000000000000000000000000000000000008152508152602001678aa39c121a2700008152602001606481526020016000815250909190915060008201518160000190805190602001906100f59291906102e0565b506020820151816001015560408201518160020155606082015181600301555050506002805480600101828161012b91906102ae565b916000526020600020906004020160006080604051908101604052806040805190810160405280600881526020017f5072696f7269747900000000000000000000000000000000000000000000000081525081526020016801156abf16a40f00008152602001606481526020016000815250909190915060008201518160000190805190602001906101be9291906102e0565b50602082015181600101556040820151816002015560608201518160030155505050600280548060010182816101f491906102ae565b916000526020600020906004020160006080604051908101604052806040805190810160405280600381526020017f564950000000000000000000000000000000000000000000000000000000000081525081526020016801a031e21b2df700008152602001606481526020016000815250909190915060008201518160000190805190602001906102879291906102e0565b50602082015181600101556040820151816002015560608201518160030155505050610414565b8154818355818115116102db576004028160040283600052602060002091820191016102da9190610360565b5b505050565b828054600181600116156101000203166002900490600052602060002090601f016020900481019282601f1061032157805160ff191683800117855561034f565b8280016001018555821561034f579182015b8281111561034e578251825591602001919060010190610333565b5b50905061035c91906103a7565b5090565b6103a491905b808211156103a0576000808201600061037f91906103cc565b60018201600090556002820160009055600382016000905550600401610366565b5090565b90565b6103c991905b808211156103c55760008160009055506001016103ad565b5090565b90565b50805460018160011615610100020316600290046000825580601f106103f25750610411565b601f01602090049060005260206000209081019061041091906103a7565b5b50565b6106e580620004246000396000f30060606040526004361061008e576000357c0100000000000000000000000000000000000000000000000000000000900463ffffffff16806317791f281461009357806361203265146100ca57806367dd74ca1461011f578063710c59731461014b5780639e1a00aa14610182578063dae7a13c146101dc578063e9dbebce14610232578063f886072c14610300575b600080fd5b341561009e57600080fd5b6100b46004808035906020019091905050610329565b6040518082815260200191505060405180910390f35b34156100d557600080fd5b6100dd610380565b604051808273ffffffffffffffffffffffffffffffffffffffff1673ffffffffffffffffffffffffffffffffffffffff16815260200191505060405180910390f35b61013560048080359060200190919050506103a5565b6040518082815260200191505060405180910390f35b341561015657600080fd5b61016c60048080359060200190919050506104d4565b6040518082815260200191505060405180910390f35b341561018d57600080fd5b6101c2600480803573ffffffffffffffffffffffffffffffffffffffff16906020019091908035906020019091905050610520565b604051808215151515815260200191505060405180910390f35b34156101e757600080fd5b61021c600480803573ffffffffffffffffffffffffffffffffffffffff16906020019091908035906020019091905050610647565b6040518082815260200191505060405180910390f35b341561023d57600080fd5b610253600480803590602001909190505061066e565b60405180806020018581526020018481526020018381526020018281038252868181546001816001161561010002031660029004815260200191508054600181600116156101000203166002900480156102ee5780601f106102c3576101008083540402835291602001916102ee565b820191906000526020600020905b8154815290600101906020018083116102d157829003601f168201915b50509550505050505060405180910390f35b341561030b57600080fd5b6103136106ac565b6040518082815260200191505060405180910390f35b6000600160003373ffffffffffffffffffffffffffffffffffffffff1673ffffffffffffffffffffffffffffffffffffffff1681526020019081526020016000208260038110151561037757fe5b01549050919050565b6000809054906101000a900473ffffffffffffffffffffffffffffffffffffffff1681565b6000600280549050821015156103be57600090506104cf565b6002828154811015156103cd57fe5b9060005260206000209060040201600201546002838154811015156103ee57fe5b90600052602060002090600402016003015410151561041057600090506104cf565b60028281548110151561041f57fe5b90600052602060002090600402016001015434101561043d57600080fd5b600160003373ffffffffffffffffffffffffffffffffffffffff1673ffffffffffffffffffffffffffffffffffffffff1681526020019081526020016000208260038110151561048957fe5b01600081548092919060010191905055506002828154811015156104a957fe5b906000526020600020906004020160030160008154809291906001019190505550600190505b919050565b60006002828154811015156104e557fe5b90600052602060002090600402016003015460028381548110151561050657fe5b906000526020600020906004020160020154039050919050565b600080600160003373ffffffffffffffffffffffffffffffffffffffff1673ffffffffffffffffffffffffffffffffffffffff1681526020019081526020016000208360038110151561056f57fe5b01541115156105815760009050610641565b600160003373ffffffffffffffffffffffffffffffffffffffff1673ffffffffffffffffffffffffffffffffffffffff168152602001908152602001600020826003811015156105cd57fe5b016000815480929190600190039190505550600160008473ffffffffffffffffffffffffffffffffffffffff1673ffffffffffffffffffffffffffffffffffffffff1681526020019081526020016000208260038110151561062b57fe5b0160008154809291906001019190505550600190505b92915050565b60016020528160005260406000208160038110151561066257fe5b01600091509150505481565b60028181548110151561067d57fe5b906000526020600020906004020160009150905080600001908060010154908060020154908060030154905084565b60006002805490509050905600a165627a7a72305820aacc3865a2ae0214347474a516803ac50a1ed781c2fe915729d057d0f88431fe0029",
  "source": "pragma solidity ^0.4.4;\r\n\r\ncontract Festival{\r\n\r\n\taddress public organizer;\r\n\r\n\tmapping (address => uint[3]) public tickets;\r\n\r\n\tstruct ticketType {\r\n\t  string name;\r\n\t  uint price;\r\n\t  uint totalTickets;\r\n\t  uint boughtTickets;\r\n\t}\r\n\tticketType[] public ticketTypes;\r\n\r\n\tfunction Festival() public{\r\n\r\n\t\torganizer = msg.sender;\r\n\r\n\t\tticketTypes.push(ticketType({name:\"Basic\", price:9.99 ether, totalTickets:100, boughtTickets:0}));\r\n\t\tticketTypes.push(ticketType({name:\"Priority\", price:19.99 ether, totalTickets:100, boughtTickets:0}));\r\n\t\tticketTypes.push(ticketType({name:\"VIP\", price:29.99 ether, totalTickets:100, boughtTickets:0}));\r\n\t}\r\n\t\r\n\tfunction ticketTypesCount() public view returns (uint){\r\n\t    return ticketTypes.length;\r\n\t}\r\n\r\n\tfunction buyTicket(uint tType) public payable returns (uint){\r\n\t\tif (tType>=ticketTypes.length)\r\n\t\t\treturn 0;\r\n\t\tif (ticketTypes[tType].boughtTickets>=ticketTypes[tType].totalTickets)\r\n\t\t\treturn 0;\r\n\t\tif (msg.value<ticketTypes[tType].price){\r\n\t\t\trevert();\r\n\t\t\treturn 0;\r\n\t\t}\r\n\t\ttickets[msg.sender][tType]++;\r\n\t\tticketTypes[tType].boughtTickets++;\t\r\n\t\t//organizer.transfer(this.balance);\r\n\t\treturn 1;\r\n\t}\r\n\t\r\n\tfunction ticketsLeft(uint tType) public view returns (uint){\r\n\t\treturn ticketTypes[tType].totalTickets-ticketTypes[tType].boughtTickets;\r\n\t}\r\n\r\n    function myTicketsCount(uint tType) public view returns (uint){\r\n    \treturn tickets[msg.sender][tType];\r\n    }\r\n\r\n    function sendTo(address adr, uint tType) public returns (bool){\r\n        if (tickets[msg.sender][tType]<=0){\r\n\t\t\treturn false;\r\n\t\t}\r\n    \ttickets[msg.sender][tType]--;\r\n    \ttickets[adr][tType]++;\r\n\t\treturn true;\r\n    }\r\n\r\n}",
  "sourcePath": "D:\\wamp64\\www\\ud\\public\\storage\\blockchain\\contracts\\Festival.sol",
  "compiler": {
    "name": "solc",
    "version": "0.4.18+commit.9cf6e910.Emscripten.clang"
  },
  "schemaVersion": "1.0.1",
  "updatedAt": "2017-12-20T17:21:57.644Z"
}