{
  "contractName": "Theater",
  "abi": [
    {
      "constant": true,
      "inputs": [],
      "name": "myTickets",
      "outputs": [
        {
          "name": "",
          "type": "uint256[]"
        }
      ],
      "payable": false,
      "stateMutability": "view",
      "type": "function"
    },
    {
      "constant": false,
      "inputs": [
        {
          "name": "row",
          "type": "uint256"
        },
        {
          "name": "column",
          "type": "uint256"
        }
      ],
      "name": "buyTicket",
      "outputs": [
        {
          "name": "",
          "type": "bool"
        }
      ],
      "payable": true,
      "stateMutability": "payable",
      "type": "function"
    },
    {
      "constant": true,
      "inputs": [],
      "name": "organizer",
      "outputs": [
        {
          "name": "",
          "type": "address"
        }
      ],
      "payable": false,
      "stateMutability": "view",
      "type": "function"
    },
    {
      "constant": true,
      "inputs": [],
      "name": "ticketsLeft",
      "outputs": [
        {
          "name": "",
          "type": "uint256"
        }
      ],
      "payable": false,
      "stateMutability": "view",
      "type": "function"
    },
    {
      "constant": true,
      "inputs": [
        {
          "name": "",
          "type": "uint256"
        },
        {
          "name": "",
          "type": "uint256"
        }
      ],
      "name": "tickets",
      "outputs": [
        {
          "name": "",
          "type": "address"
        }
      ],
      "payable": false,
      "stateMutability": "view",
      "type": "function"
    },
    {
      "constant": true,
      "inputs": [],
      "name": "myTicketCount",
      "outputs": [
        {
          "name": "",
          "type": "uint256"
        }
      ],
      "payable": false,
      "stateMutability": "view",
      "type": "function"
    },
    {
      "constant": true,
      "inputs": [
        {
          "name": "",
          "type": "address"
        }
      ],
      "name": "userTicketsLength",
      "outputs": [
        {
          "name": "",
          "type": "uint256"
        }
      ],
      "payable": false,
      "stateMutability": "view",
      "type": "function"
    },
    {
      "constant": false,
      "inputs": [
        {
          "name": "adr",
          "type": "address"
        },
        {
          "name": "row",
          "type": "uint256"
        },
        {
          "name": "column",
          "type": "uint256"
        }
      ],
      "name": "sendTo",
      "outputs": [
        {
          "name": "",
          "type": "bool"
        }
      ],
      "payable": false,
      "stateMutability": "nonpayable",
      "type": "function"
    },
    {
      "constant": true,
      "inputs": [
        {
          "name": "",
          "type": "address"
        },
        {
          "name": "",
          "type": "uint256"
        }
      ],
      "name": "userTickets",
      "outputs": [
        {
          "name": "",
          "type": "uint256"
        }
      ],
      "payable": false,
      "stateMutability": "view",
      "type": "function"
    },
    {
      "constant": true,
      "inputs": [],
      "name": "totalTickets",
      "outputs": [
        {
          "name": "",
          "type": "uint256"
        }
      ],
      "payable": false,
      "stateMutability": "view",
      "type": "function"
    },
    {
      "constant": true,
      "inputs": [],
      "name": "boughtTickets",
      "outputs": [
        {
          "name": "",
          "type": "uint256"
        }
      ],
      "payable": false,
      "stateMutability": "view",
      "type": "function"
    },
    {
      "inputs": [],
      "payable": false,
      "stateMutability": "nonpayable",
      "type": "constructor"
    }
  ],
  "bytecode": "0x6060604052675320c1437c970000601555341561001b57600080fd5b336000806101000a81548173ffffffffffffffffffffffffffffffffffffffff021916908373ffffffffffffffffffffffffffffffffffffffff16021790555060066003026016819055506000601781905550610bde8061007d6000396000f3006060604052600436106100ae576000357c0100000000000000000000000000000000000000000000000000000000900463ffffffff168062ea8737146100b3578063298ec2081461011d57806361203265146101565780636cab5e5b146101ab578063a374e43f146101d4578063aeb7f16a14610240578063b480308014610269578063b67f4eff146102b6578063cf260baf14610319578063dd11247e1461036f578063e38e7dc414610398575b600080fd5b34156100be57600080fd5b6100c66103c1565b6040518080602001828103825283818151815260200191508051906020019060200280838360005b838110156101095780820151818401526020810190506100ee565b505050509050019250505060405180910390f35b61013c600480803590602001909190803590602001909190505061045c565b604051808215151515815260200191505060405180910390f35b341561016157600080fd5b610169610608565b604051808273ffffffffffffffffffffffffffffffffffffffff1673ffffffffffffffffffffffffffffffffffffffff16815260200191505060405180910390f35b34156101b657600080fd5b6101be61062d565b6040518082815260200191505060405180910390f35b34156101df57600080fd5b6101fe600480803590602001909190803590602001909190505061063b565b604051808273ffffffffffffffffffffffffffffffffffffffff1673ffffffffffffffffffffffffffffffffffffffff16815260200191505060405180910390f35b341561024b57600080fd5b610253610684565b6040518082815260200191505060405180910390f35b341561027457600080fd5b6102a0600480803573ffffffffffffffffffffffffffffffffffffffff169060200190919050506106cb565b6040518082815260200191505060405180910390f35b34156102c157600080fd5b6102ff600480803573ffffffffffffffffffffffffffffffffffffffff169060200190919080359060200190919080359060200190919050506106e3565b604051808215151515815260200191505060405180910390f35b341561032457600080fd5b610359600480803573ffffffffffffffffffffffffffffffffffffffff16906020019091908035906020019091905050610b10565b6040518082815260200191505060405180910390f35b341561037a57600080fd5b610382610b41565b6040518082815260200191505060405180910390f35b34156103a357600080fd5b6103ab610b47565b6040518082815260200191505060405180910390f35b6103c9610b4d565b601360003373ffffffffffffffffffffffffffffffffffffffff1673ffffffffffffffffffffffffffffffffffffffff16815260200190815260200160002080548060200260200160405190810160405280929190818152602001828054801561045257602002820191906000526020600020905b81548152602001906001019080831161043e575b5050505050905090565b60008060018460038110151561046e57fe5b600602018360068110151561047f57fe5b0160009054906101000a900473ffffffffffffffffffffffffffffffffffffffff1673ffffffffffffffffffffffffffffffffffffffff161415156104c357600080fd5b6015543410156104d257600080fd5b336001846003811015156104e257fe5b60060201836006811015156104f357fe5b0160006101000a81548173ffffffffffffffffffffffffffffffffffffffff021916908373ffffffffffffffffffffffffffffffffffffffff160217905550601360003373ffffffffffffffffffffffffffffffffffffffff1673ffffffffffffffffffffffffffffffffffffffff16815260200190815260200160002080548060010182816105839190610b61565b9160005260206000209001600084600687020190919091505550601460003373ffffffffffffffffffffffffffffffffffffffff1673ffffffffffffffffffffffffffffffffffffffff168152602001908152602001600020600081548092919060010191905055506017600081548092919060010191905055506001905092915050565b6000809054906101000a900473ffffffffffffffffffffffffffffffffffffffff1681565b600060175460165403905090565b60018260038110151561064a57fe5b600602018160068110151561065b57fe5b016000915091509054906101000a900473ffffffffffffffffffffffffffffffffffffffff1681565b6000601460003373ffffffffffffffffffffffffffffffffffffffff1673ffffffffffffffffffffffffffffffffffffffff16815260200190815260200160002054905090565b60146020528060005260406000206000915090505481565b6000803373ffffffffffffffffffffffffffffffffffffffff1660018560038110151561070c57fe5b600602018460068110151561071d57fe5b0160009054906101000a900473ffffffffffffffffffffffffffffffffffffffff1673ffffffffffffffffffffffffffffffffffffffff16141580156107d057508473ffffffffffffffffffffffffffffffffffffffff1660018560038110151561078457fe5b600602018460068110151561079557fe5b0160009054906101000a900473ffffffffffffffffffffffffffffffffffffffff1673ffffffffffffffffffffffffffffffffffffffff1614155b156107de5760009150610b08565b600090505b601460003373ffffffffffffffffffffffffffffffffffffffff1673ffffffffffffffffffffffffffffffffffffffff16815260200190815260200160002054811015610b0357826006850201601360003373ffffffffffffffffffffffffffffffffffffffff1673ffffffffffffffffffffffffffffffffffffffff1681526020019081526020016000208281548110151561087c57fe5b9060005260206000209001541415610af657601360003373ffffffffffffffffffffffffffffffffffffffff1673ffffffffffffffffffffffffffffffffffffffff1681526020019081526020016000206001601460003373ffffffffffffffffffffffffffffffffffffffff1673ffffffffffffffffffffffffffffffffffffffff168152602001908152602001600020540381548110151561091c57fe5b906000526020600020900154601360003373ffffffffffffffffffffffffffffffffffffffff1673ffffffffffffffffffffffffffffffffffffffff1681526020019081526020016000208281548110151561097457fe5b906000526020600020900181905550601460003373ffffffffffffffffffffffffffffffffffffffff1673ffffffffffffffffffffffffffffffffffffffff1681526020019081526020016000206000815480929190600190039190505550601360008673ffffffffffffffffffffffffffffffffffffffff1673ffffffffffffffffffffffffffffffffffffffff1681526020019081526020016000208054806001018281610a249190610b61565b9160005260206000209001600085600688020190919091505550601460008673ffffffffffffffffffffffffffffffffffffffff1673ffffffffffffffffffffffffffffffffffffffff1681526020019081526020016000206000815480929190600101919050555084600185600381101515610a9d57fe5b6006020184600681101515610aae57fe5b0160006101000a81548173ffffffffffffffffffffffffffffffffffffffff021916908373ffffffffffffffffffffffffffffffffffffffff16021790555060019150610b08565b80806001019150506107e3565b600091505b509392505050565b601360205281600052604060002081815481101515610b2b57fe5b9060005260206000209001600091509150505481565b60165481565b60175481565b602060405190810160405280600081525090565b815481835581811511610b8857818360005260206000209182019101610b879190610b8d565b5b505050565b610baf91905b80821115610bab576000816000905550600101610b93565b5090565b905600a165627a7a723058203daeea5fe7524f1a6204d0001b751204cd3e90393db96e1020ee532e0cb22cf00029",
  "source": "pragma solidity ^0.4.18;\r\n\r\ncontract Theater{\r\n\r\n\taddress public organizer;\r\n\t\r\n\tuint constant rows=3;\r\n\tuint constant columns=6;\r\n\taddress [6][3] public tickets; //[columns][rows]\r\n\t\r\n\tmapping (address=>uint[]) public userTickets;\r\n\tmapping (address=>uint) public userTicketsLength;\r\n\t\r\n\tuint price=5.99 ether;\r\n\tuint public totalTickets;\r\n\tuint public boughtTickets;\r\n\r\n\r\n\tfunction Theater() public{\r\n\r\n\t\torganizer = msg.sender;\r\n\t\ttotalTickets=rows*columns;\r\n\t\tboughtTickets=0;\r\n\t}\r\n\r\n\tfunction buyTicket(uint row, uint column) public payable returns (bool){\r\n\t\tif (tickets[row][column]!=0){\r\n            revert();\r\n\t\t\treturn false;\r\n\t\t}\r\n\t\tif (msg.value<price){\r\n            revert();\r\n            return false;\r\n        }\r\n\t\ttickets[row][column]=msg.sender;\r\n\t\tuserTickets[msg.sender].push(row*columns+column);\r\n\t\tuserTicketsLength[msg.sender]++;\r\n\t\tboughtTickets++;\r\n\t\t//organizer.transfer(this.balance);\r\n\t\treturn true;\r\n\t}\r\n\t\r\n\tfunction ticketsLeft() public view returns (uint){\r\n\t    return totalTickets-boughtTickets;\r\n\t}\r\n    \r\n    function myTickets() public view returns (uint[]){\r\n        return userTickets[msg.sender];\r\n    }\r\n    \r\n    function myTicketCount() public view returns (uint){\r\n        return userTicketsLength[msg.sender];\r\n    }\r\n\r\n    function sendTo(address adr, uint row, uint column) public returns (bool){\r\n        if (tickets[row][column]!=msg.sender && tickets[row][column]!=adr)\r\n            return false;\r\n    \tfor (uint i=0; i<userTicketsLength[msg.sender]; i++){\r\n    \t    if (userTickets[msg.sender][i]==row*columns+column){\r\n    \t        //delete(userTickets[msg.sender][i]);\r\n    \t        userTickets[msg.sender][i]=userTickets[msg.sender][userTicketsLength[msg.sender]-1];\r\n    \t        userTicketsLength[msg.sender]--;\r\n    \t        userTickets[adr].push(row*columns+column);\r\n    \t        userTicketsLength[adr]++;\r\n    \t        tickets[row][column]=adr;\r\n    \t        return true;\r\n    \t    }\r\n    \t}\r\n        return false;\r\n    }\r\n\r\n}",
  "sourcePath": "D:\\wamp64\\www\\ud\\public\\storage\\blockchain\\contracts\\Theater.sol",
  "compiler": {
    "name": "solc",
    "version": "0.4.18+commit.9cf6e910.Emscripten.clang"
  },
  "schemaVersion": "1.0.1",
  "updatedAt": "2017-12-19T20:52:07.637Z"
}